:100000000C944A000C9400000C9400000C94000026
:100010000C9400000C9400000C9400000C94000060
:100020000C9400000C9400000C9400000C94000050
:100030000C9400000C9400000C9400000C94000040
:100040000C9400000C9400000C9400000C94000030
:100050000C9400001027E80364000A00010000105F
:10006000000110000100494E20544845204E414DEA
:1000700045204F4620474F440025643A25643A25E1
:100080006420202020202020200080C00200600169
:100090008A000000F894EE27ECBBF1E0FBBFEBBF59
:1000A000E5BF8DE0A2E0BB27ED938A95E9F780E0FC
:1000B00094E0A0E6ED930197E9F7ECE8F0E0859194
:1000C0009591009761F0A591B59105901590BF01AC
:1000D000F00105900D920197E1F7FB01F0CFEFE5FC
:1000E000EDBFE4E0EEBFC0E6D1E00C94770060978E
:1000F00000E010E020E030E040E050E0E0E0EABB6B
:10010000EBBBE7BBE8BBE4BBE5BBE1BBE2BBE3BFEA
:10011000E2BFECBFEFBDEEBDEDBDECBDE7BDE6BDA2
:10012000EBBDEABDE9BDE8BDE2BDE5BDE4BDE3BDB3
:10013000E9BFE5BFE4BFEAB9E0E8E8B9E0E0E0BF65
:10014000E6B9EDB9E6BFA0E1B5D071D0A6E6B0E062
:100150009ED0A8E8B3E10E94860369D00F5F1F4FCD
:100160000C33E0E01E0724F02F5F3F4F00E010E06B
:100170002C33E0E03E0724F04F5F5F4F20E030E09B
:100180004831E0E05E0734F040E050E020E030E04D
:1001900000E010E0FE01FA93EA93E9E7F0E0FA9359
:1001A000EA93FA010E944803F9010E944803F8010A
:1001B0000E9448038CE00E94FB026096E0E0EA9314
:1001C000A0E028D0DE0154D0A6EBB3E00E94860365
:1001D000C5CFFFCFAA93EBB3EF70AE2FE881E07FDE
:1001E000EA2BEBBB82E08A95F1F7DA9A82E08A95F6
:1001F000F1F7DA9882E08A95F1F787C0AA93A8818F
:10020000E9DFE881E295E883A881E4DF81E18A956E
:10021000F1F77BC0AA93E881F0E0E05AFE4FE0815D
:10022000A981AE0FEBDF5980488022960895A2E0A5
:100230000E944D03ACE0E2DFA1E00E944D03E0E04C
:100240004E2E5E2E0895AA93A881AA3011F057145D
:1002500048F0E0E0EA934394A42DDCDFA881AA30C3
:1002600009F453C05394D89AA881C8DFD8984DC0D8
:10027000BA93AA931A93A981BA81ED91A983BA83FB
:100280001E2FE03019F0A12FDEDFF5CF10C0BA939A
:10029000AA931A93E981FA813196E983FA83319717
:1002A000E4911E2FE03019F0A12FCDDFF3CF18819C
:1002B00023960895AA93EAB3E06FEABBD29AD09A44
:1002C000D19ADA98D898D9987880E881E058E09364
:1002D0006201E881E054E0936301A4E1B0E00E9490
:1002E00086030E9453030E9453030E945303A0E21B
:1002F00071DF81E28A95F1F7A8E280DFA4E07EDF7A
:10030000A5E87CDFA6E07ADF92DF21960895BA9314
:10031000AA931A930A93AA81BB8112960E949D0305
:10032000309759F1AA81BB8114960E949D038F01D9
:10033000309761F00230E0E01E0798F0F801319745
:100340008F01AA81BB811496ED93FC93AA81BB8196
:100350001296ED91FD913196FE93EE933197AC811B
:10036000A083AA81BB810E949D03FF232AF0ED9107
:10037000FD913196FE93EE9306C0AA81BB81EFEF0B
:10038000FFEFED93FC931981088125960895BA93A8
:10039000AA9326970E94AA0310E0AC85BD85E0E0F1
:1003A000F0E0ED93FC93EA89FB893196EA8BFB8BB5
:1003B0003197E4912E2FE03009F415C1E12FE030A0
:1003C00039F4253211F411E002C00E945A030AC127
:1003D000E130A9F4253219F40E945A0302C112E057
:1003E00040E000E02D3211F401E0FCC02B3211F4AA
:1003F0004BE2F8C0203211F440E2F4C002C0E23017
:1004000039F450E013E0203311F40068EBC003C06E
:10041000E33009F0E7C0203310F02A3308F007C0BA
:10042000AAE05A9F502DE22FE0535E0FDBC0E22F6F
:10043000E33649F40E946103E889F989A481AA930B
:100440000E946703CEC0E33741F40E9461030E941B
:100450006D030E942F031E2F0AC0E03761F40E9433
:1004600061030E946D030E943B031E2F086002601F
:100470000F7730E034C0E43611F0E93611F404604F
:1004800002C0E53731F4E4E5F0E0EE83FF8315E0E8
:100490000CC0E83511F4086003C0E83709F0A1C0CA
:1004A000EEE5F0E0EE83FF8314E002FF14C00E944B
:1004B00061030E947703AB85AA233AF4EA85FB85A2
:1004C0000E949403EA87FB874DE2403011F01F5FE2
:1004D00001C00B7F04C00E9461030E94770300FDEE
:1004E00011C0151778F407FF08C002FF04C00B7F86
:1004F000242F115001C020E301C020E20E945A03C2
:100500005150EFCF312F01FF17C03030A1F003FF62
:1005100006C0EE81FF812591EE83FF8305C0AE8189
:10052000BF812D91AE83BF830E945A03503009F0E2
:1005300051503150EACF4BC020E3EE81FF810E9441
:10054000A103E887F987EE81FF813296EE83FF836E
:10055000E885F985AA85BB85AE17BF0750F02F5FE8
:10056000A885B985EA85FB85EA1BFB0BEA87FB8733
:10057000EFCF2A3328F003FF02C0295F01C0295DB5
:1005800004FD1AC0213320F4A885B985119709F418
:1005900009C0531710F000FF01C013C020E207FF8D
:1005A0000BC020E3006102FF07C00B7F4A930E944B
:1005B0006703503009F051500E945A03503009F03F
:1005C00051503150A885B985129708F0B5CF00FF7A
:1005D00008C0503031F05150E0E2EA930E946703C6
:1005E000F8CF10E0E0CEAC85BD850E949D030E944F
:1005F000B10364960895FF92F82E26970E94AC03EB
:100600000E947F03309719F4EFEFFFEF23C0DE0164
:1006100016960E9490038D010E947F03EE83FF8354
:10062000E0E0E887E987DE011A960E9490030E94C5
:100630009D03FA93EA931A930A93E7E8F1E0FA9399
:10064000EA93DE011A96A3DE9F01AE81BF81E0E04E
:10065000EC93F9010E94B3032A96FF900895BA9390
:10066000AA93A991B991EE27FF276D91662311F006
:100670003196FBCF0895BA93AA93AA27BB27E99195
:10068000F9910590002011F01196FBCFFD0108951E
:100690000E9498030E94A50308950E94FE00A3E013
:1006A000B0E00C948603A0E30E94EA0081E28A9500
:1006B000F1F708952A93AD85BE85EF85F8890995F0
:1006C0000895E889F9893497E88BF98B0895AD8509
:1006D000BE85EF85F88909950895A889B98914968A
:1006E0000E949D03EE83FF83AE81BF810895A88998
:1006F000B98914960E949D03EA87FB870895DE015D
:100700001C960E9490030E949D030895109639F054
:100710008AEF90E00197F1F7A8951197C9F708952E
:100720000024AF0DB01D0895F195E195F0400895B6
:100730006F2F660F660B762F0895ED91FC91119740
:1007400008950590F491E02D08957A936A93FA93B1
:10075000EA9308955A934A933A932A931A930A93E1
:1007600008955D814C813B812A811981088108951A
:00000001FF
